{
  "_format": "hh-sol-artifact-1",
  "contractName": "Warranty",
  "sourceName": "contracts/Warranty.sol",
  "abi": [
    {
      "anonymous": false,
      "inputs": [
        {
          "indexed": true,
          "internalType": "address",
          "name": "owner",
          "type": "address"
        }
      ],
      "name": "WarrantyClaimed",
      "type": "event"
    },
    {
      "anonymous": false,
      "inputs": [
        {
          "indexed": true,
          "internalType": "address",
          "name": "owner",
          "type": "address"
        },
        {
          "indexed": false,
          "internalType": "string",
          "name": "productName",
          "type": "string"
        },
        {
          "indexed": false,
          "internalType": "uint256",
          "name": "purchaseDate",
          "type": "uint256"
        },
        {
          "indexed": false,
          "internalType": "uint256",
          "name": "warrantyPeriod",
          "type": "uint256"
        }
      ],
      "name": "WarrantyCreated",
      "type": "event"
    },
    {
      "inputs": [],
      "name": "claimWarranty",
      "outputs": [],
      "stateMutability": "nonpayable",
      "type": "function"
    },
    {
      "inputs": [
        {
          "internalType": "string",
          "name": "productName",
          "type": "string"
        },
        {
          "internalType": "uint256",
          "name": "warrantyPeriod",
          "type": "uint256"
        }
      ],
      "name": "createWarranty",
      "outputs": [],
      "stateMutability": "nonpayable",
      "type": "function"
    },
    {
      "inputs": [],
      "name": "getWarrantyInfo",
      "outputs": [
        {
          "components": [
            {
              "internalType": "string",
              "name": "productName",
              "type": "string"
            },
            {
              "internalType": "uint256",
              "name": "purchaseDate",
              "type": "uint256"
            },
            {
              "internalType": "uint256",
              "name": "warrantyPeriod",
              "type": "uint256"
            },
            {
              "internalType": "bool",
              "name": "isActive",
              "type": "bool"
            }
          ],
          "internalType": "struct Warranty.WarrantyInfo",
          "name": "",
          "type": "tuple"
        }
      ],
      "stateMutability": "view",
      "type": "function"
    },
    {
      "inputs": [
        {
          "internalType": "address",
          "name": "",
          "type": "address"
        }
      ],
      "name": "warranties",
      "outputs": [
        {
          "internalType": "string",
          "name": "productName",
          "type": "string"
        },
        {
          "internalType": "uint256",
          "name": "purchaseDate",
          "type": "uint256"
        },
        {
          "internalType": "uint256",
          "name": "warrantyPeriod",
          "type": "uint256"
        },
        {
          "internalType": "bool",
          "name": "isActive",
          "type": "bool"
        }
      ],
      "stateMutability": "view",
      "type": "function"
    }
  ],
  "bytecode": "0x608060405234801561001057600080fd5b5061100c806100206000396000f3fe608060405234801561001057600080fd5b506004361061004c5760003560e01c80633d2a452c14610051578063ae30d69b1461005b578063cdf6903814610077578063f1a881c214610095575b600080fd5b6100596100c8565b005b61007560048036038101906100709190610808565b6102d9565b005b61007f610472565b60405161008c9190610970565b60405180910390f35b6100af60048036038101906100aa91906109f0565b610589565b6040516100bf9493929190610a85565b60405180910390f35b600115156000803373ffffffffffffffffffffffffffffffffffffffff1673ffffffffffffffffffffffffffffffffffffffff16815260200190815260200160002060030160009054906101000a900460ff1615151461015d576040517f08c379a000000000000000000000000000000000000000000000000000000000815260040161015490610b1d565b60405180910390fd5b62278d006000803373ffffffffffffffffffffffffffffffffffffffff1673ffffffffffffffffffffffffffffffffffffffff168152602001908152602001600020600201546101ad9190610b6c565b6000803373ffffffffffffffffffffffffffffffffffffffff1673ffffffffffffffffffffffffffffffffffffffff168152602001908152602001600020600101546101f99190610bae565b421061023a576040517f08c379a000000000000000000000000000000000000000000000000000000000815260040161023190610c2e565b60405180910390fd5b60008060003373ffffffffffffffffffffffffffffffffffffffff1673ffffffffffffffffffffffffffffffffffffffff16815260200190815260200160002060030160006101000a81548160ff0219169083151502179055503373ffffffffffffffffffffffffffffffffffffffff167f6fad47b99900748f1a0d3745aa74b46a12d3b65079689fb2727369b5f17d34d260405160405180910390a2565b600015156000803373ffffffffffffffffffffffffffffffffffffffff1673ffffffffffffffffffffffffffffffffffffffff16815260200190815260200160002060030160009054906101000a900460ff1615151461036e576040517f08c379a000000000000000000000000000000000000000000000000000000000815260040161036590610c9a565b60405180910390fd5b6040518060800160405280838152602001428152602001828152602001600115158152506000803373ffffffffffffffffffffffffffffffffffffffff1673ffffffffffffffffffffffffffffffffffffffff16815260200190815260200160002060008201518160000190816103e59190610ec6565b50602082015181600101556040820151816002015560608201518160030160006101000a81548160ff0219169083151502179055509050503373ffffffffffffffffffffffffffffffffffffffff167e645fa191c4a667ad6fd4fc1e78b5a5f7963a20f151bbd335810a8ed22437d783428460405161046693929190610f98565b60405180910390a25050565b61047a61064e565b6000803373ffffffffffffffffffffffffffffffffffffffff1673ffffffffffffffffffffffffffffffffffffffff1681526020019081526020016000206040518060800160405290816000820180546104d390610ce9565b80601f01602080910402602001604051908101604052809291908181526020018280546104ff90610ce9565b801561054c5780601f106105215761010080835404028352916020019161054c565b820191906000526020600020905b81548152906001019060200180831161052f57829003601f168201915b5050505050815260200160018201548152602001600282015481526020016003820160009054906101000a900460ff161515151581525050905090565b60006020528060005260406000206000915090508060000180546105ac90610ce9565b80601f01602080910402602001604051908101604052809291908181526020018280546105d890610ce9565b80156106255780601f106105fa57610100808354040283529160200191610625565b820191906000526020600020905b81548152906001019060200180831161060857829003601f168201915b5050505050908060010154908060020154908060030160009054906101000a900460ff16905084565b60405180608001604052806060815260200160008152602001600081526020016000151581525090565b6000604051905090565b600080fd5b600080fd5b600080fd5b600080fd5b6000601f19601f8301169050919050565b7f4e487b7100000000000000000000000000000000000000000000000000000000600052604160045260246000fd5b6106df82610696565b810181811067ffffffffffffffff821117156106fe576106fd6106a7565b5b80604052505050565b6000610711610678565b905061071d82826106d6565b919050565b600067ffffffffffffffff82111561073d5761073c6106a7565b5b61074682610696565b9050602081019050919050565b82818337600083830152505050565b600061077561077084610722565b610707565b90508281526020810184848401111561079157610790610691565b5b61079c848285610753565b509392505050565b600082601f8301126107b9576107b861068c565b5b81356107c9848260208601610762565b91505092915050565b6000819050919050565b6107e5816107d2565b81146107f057600080fd5b50565b600081359050610802816107dc565b92915050565b6000806040838503121561081f5761081e610682565b5b600083013567ffffffffffffffff81111561083d5761083c610687565b5b610849858286016107a4565b925050602061085a858286016107f3565b9150509250929050565b600081519050919050565b600082825260208201905092915050565b60005b8381101561089e578082015181840152602081019050610883565b60008484015250505050565b60006108b582610864565b6108bf818561086f565b93506108cf818560208601610880565b6108d881610696565b840191505092915050565b6108ec816107d2565b82525050565b60008115159050919050565b610907816108f2565b82525050565b6000608083016000830151848203600086015261092a82826108aa565b915050602083015161093f60208601826108e3565b50604083015161095260408601826108e3565b50606083015161096560608601826108fe565b508091505092915050565b6000602082019050818103600083015261098a818461090d565b905092915050565b600073ffffffffffffffffffffffffffffffffffffffff82169050919050565b60006109bd82610992565b9050919050565b6109cd816109b2565b81146109d857600080fd5b50565b6000813590506109ea816109c4565b92915050565b600060208284031215610a0657610a05610682565b5b6000610a14848285016109db565b91505092915050565b600082825260208201905092915050565b6000610a3982610864565b610a438185610a1d565b9350610a53818560208601610880565b610a5c81610696565b840191505092915050565b610a70816107d2565b82525050565b610a7f816108f2565b82525050565b60006080820190508181036000830152610a9f8187610a2e565b9050610aae6020830186610a67565b610abb6040830185610a67565b610ac86060830184610a76565b95945050505050565b7f4e6f206163746976652077617272616e74792e00000000000000000000000000600082015250565b6000610b07601383610a1d565b9150610b1282610ad1565b602082019050919050565b60006020820190508181036000830152610b3681610afa565b9050919050565b7f4e487b7100000000000000000000000000000000000000000000000000000000600052601160045260246000fd5b6000610b77826107d2565b9150610b82836107d2565b9250828202610b90816107d2565b91508282048414831517610ba757610ba6610b3d565b5b5092915050565b6000610bb9826107d2565b9150610bc4836107d2565b9250828201905080821115610bdc57610bdb610b3d565b5b92915050565b7f57617272616e747920706572696f6420657870697265642e0000000000000000600082015250565b6000610c18601883610a1d565b9150610c2382610be2565b602082019050919050565b60006020820190508181036000830152610c4781610c0b565b9050919050565b7f57617272616e747920616c7265616479206578697374732e0000000000000000600082015250565b6000610c84601883610a1d565b9150610c8f82610c4e565b602082019050919050565b60006020820190508181036000830152610cb381610c77565b9050919050565b7f4e487b7100000000000000000000000000000000000000000000000000000000600052602260045260246000fd5b60006002820490506001821680610d0157607f821691505b602082108103610d1457610d13610cba565b5b50919050565b60008190508160005260206000209050919050565b60006020601f8301049050919050565b600082821b905092915050565b600060088302610d7c7fffffffffffffffffffffffffffffffffffffffffffffffffffffffffffffffff82610d3f565b610d868683610d3f565b95508019841693508086168417925050509392505050565b6000819050919050565b6000610dc3610dbe610db9846107d2565b610d9e565b6107d2565b9050919050565b6000819050919050565b610ddd83610da8565b610df1610de982610dca565b848454610d4c565b825550505050565b600090565b610e06610df9565b610e11818484610dd4565b505050565b5b81811015610e3557610e2a600082610dfe565b600181019050610e17565b5050565b601f821115610e7a57610e4b81610d1a565b610e5484610d2f565b81016020851015610e63578190505b610e77610e6f85610d2f565b830182610e16565b50505b505050565b600082821c905092915050565b6000610e9d60001984600802610e7f565b1980831691505092915050565b6000610eb68383610e8c565b9150826002028217905092915050565b610ecf82610864565b67ffffffffffffffff811115610ee857610ee76106a7565b5b610ef28254610ce9565b610efd828285610e39565b600060209050601f831160018114610f305760008415610f1e578287015190505b610f288582610eaa565b865550610f90565b601f198416610f3e86610d1a565b60005b82811015610f6657848901518255600182019150602085019450602081019050610f41565b86831015610f835784890151610f7f601f891682610e8c565b8355505b6001600288020188555050505b505050505050565b60006060820190508181036000830152610fb28186610a2e565b9050610fc16020830185610a67565b610fce6040830184610a67565b94935050505056fea26469706673582212207db0950de38cb9a9cccba2f4bf4381ff16b47f7f0725d1cb2cb73bea95df173364736f6c63430008110033",
  "linkReferences": {},
  "deployedLinkReferences": {}
}